:1000000070C100009EC100009CC100009AC10000A8
:1000100098C1000096C1000094C1000092C1000088
:1000200090C100008EC100008CC100008AC1000098
:1000300088C1000086C1000084C1000082C10000A8
:1000400080C100007EC100007CC100007AC10000B8
:1000500078C1000076C1000074C1000012C6000023
:1000600070C100000C94F2080C9428096AC10000C9
:1000700068C1000066C1000064C1000062C10000E8
:1000800060C100005EC100005CC100005AC10000F8
:1000900058C1000056C1000054C1000052C1000008
:1000A00050C100004EC100004CC100004AC1000018
:1000B00048C1000046C1000044C1000042C1000028
:1000C00040C100003EC100003CC100003AC1000038
:1000D00038C1000036C1000034C1000032C1000048
:1000E00030C10000005EBCE2613FDD83C29C7E2027
:1000F000A3FD1F419DC3217FFCA2401E5F01E3BD04
:100100003E6082DC237D9FC1421CFEA0E1BF5D03F7
:1001100080DE3C62BEE0025CDF81633D7C22C09EEB
:100120001D43A1FF4618FAA427799BC584DA3866D7
:10013000E5BB5907DB856739BAE406581947A5FBC3
:100140007826C49A653BD987045AB8E6A7F91B45B7
:10015000C6987A24F8A6441A99C7257B3A6486D8AB
:100160005B05E7B98CD2306EEDB3510F4E10F2AC97
:100170002F7193CD114FADF3702ECC92D38D6F3183
:10018000B2EC0E50AFF1134DCE90722C6D33D18F77
:100190000C52B0EE326C8ED0530DEFB1F0AE4C126B
:1001A00091CF2D73CA947628ABF517490856B4EA57
:1001B0006937D58B5709EBB536688AD495CB297743
:1001C000F4AA4816E9B7550B88D6346A2B7597C937
:1001D0004A14F6A8742AC896154BA9F7B6E80A542B
:1001E000D7896B350102102020080810204010200C
:1001F00040800201020108040201010204081020EB
:1002000040808040201008040201800402018040E8
:100210002010080402010804020101020408102051
:1002200040800102040810204080044080048008BF
:100230001010204004081020408005050505070522
:1002400008080808020202020A0A08080404040452
:10025000010101010101010103030303030303037E
:10026000040707070C0C0C0C0C0C0C0C020202020D
:1002700006060606060606060B0B0B0B0B0B0B0BF6
:10028000050505080807070404040A0A0A0A0A0AF9
:10029000000020002300260029002C002F0032003F
:1002A00000010000030106010901000022002500F1
:1002B00028002B002E00310034000201000005014F
:1002C00008010B0100002100240027002A002D0056
:1002D0003000330001010000040107010A01D901C7
:1002E0005A0911241FBECFEFD1E2DEBFCDBF00E01F
:1002F0000CBF12E0A0E0B2E0ECEEFAE100E00BBFD0
:1003000002C007900D92AC38B107D9F723E0ACE8F2
:10031000B2E001C01D92A335B207E1F711E0C1E7D9
:10032000D1E000E006C021970109802FFE010E9464
:100330006C0DCF36D10780E00807A9F7E9D70C94F8
:10034000740D5ECE26E040E855E260E070E086EB9A
:1003500092E0E8D660E072E086EB92E00E94DF096E
:100360008CE892E0DDC26BE272E086EB92E00E94E4
:10037000CE098CE892E096D366E472E086EB92E0D8
:100380000E94DF096BE472E086EB92E00E94CE09E6
:1003900060E08CE892E055D4AB01BC0122E030E093
:1003A00086EB92E00E941F0B60ED77E080E090E02A
:1003B000E3C467E08FE992E01AD16FE972E08CE85C
:1003C00092E0C1C1FF920F931F93CF93DF93FC0183
:1003D0001081C181D281F8948A81012F00958023F8
:1003E0008A8389818023898378948DE7F82EFA9413
:1003F000FF2041F182E090E0F5D488818123B9F3B8
:10040000F8948A8180238A838981812B89837894D7
:1004100084EF91E0E7D4F89489810823098380E58B
:1004200090E0E0D488811823C1E009F0C0E078941E
:1004300084EA91E0D7D48C2FDF91CF911F910F9157
:10044000FF900895C0E0F7CF1F93CF93DF93FC0197
:100450001081C181D281912F909560FF14C0F894D2
:100460008A8189238A838981812B89838AE090E02C
:10047000B9D48A81182B1A83789487E390E0DF91AE
:10048000CF911F91AFC4F8948A8189238A8389818F
:10049000812B898381E490E0A5D48A81182B1A836B
:1004A000789485E090E0EBCF0F931F93CF93DF9389
:1004B000FC011081C181D281F8948981812B8983CB
:1004C0008A81012F009580238A8383E090E08AD47B
:1004D0008981802389838AE090E084D4C8817894DC
:1004E00085E390E07FD4C12381E009F480E0DF91CF
:1004F000CF911F910F910895DF92EF92FF920F938A
:100500001F93CF93DF93EC01D62EE42E08E010E08A
:10051000FF24F39461E08D2D8F2109F460E0CE017A
:1005200093DFFF0C01501109A9F7E11010C0F894F6
:10053000E981FA8191818881809589238183E9818C
:10054000FA81928188818095892382837894DF91D2
:10055000CF911F910F91FF90EF90DF900895EF9250
:10056000FF920F931F93CF93DF937C0108E010E07D
:10057000C0E0D1E0C70198DF8111CD2BDD0F015024
:100580001109C1F78C2FDF91CF911F910F91FF902F
:10059000EF900895EF92FF920F931F93CF93DF9305
:1005A0008C017B0140E065E5A7DFE70188E0E80E0C
:1005B000F11C699140E0C8019FDFCE15DF05C9F746
:1005C000DF91CF911F910F91FF90EF90089540E040
:1005D0006CEC92CFFC011386158614861286118668
:1005E00010861782168215821482138208951F9333
:1005F000CF93DF93EC01162F60E0812F60D4612F41
:1006000070E0FB01EC51FE4FE491E883FB01E65CF6
:10061000FD4FE491F0E0EE0FFF1FE057FD4F859195
:1006200094919A838983CE01DF91CF911F91D2CF8C
:10063000BF92CF92DF92EF92FF920F931F93CF93CF
:10064000DF93EC01B62EC72EED84EE2081F01B86E1
:100650001D861C8680E02396EB2DFC2D9F01285FD4
:100660003F4F999191932E173F07D9F706C0AADE05
:1006700081110DC01B861D861C86DF91CF911F91B5
:100680000F91FF90EF90DF90CF90BF90089540E0E2
:1006900060EFCE0131DFD12C01E011E0CE0104DFAB
:1006A000F82ECE0101DF91E0F9120EC0813049F53C
:1006B000113468F2EB86E11002C081E08D878B81F6
:1006C000882329F281E0C7CFED2DF0E0F8120FC0AA
:1006D0008B851817A0F4DE01AE0FBF1F13968C9107
:1006E000802379F4F12C193008F41C87E12EEC0FEB
:1006F000FD1F8381902F9095892383830AC08113E6
:10070000F1CFFE01ED0DF11D8381802B8383FF244A
:10071000F3946F2DCE0198DE1F5F000F11F4D39478
:1007200001E087E08D1508F0B9CFC2CFDC0180E091
:10073000615038F0ED91E827F0E0EC51FF4F8491E3
:10074000F7CF08950895FC0182EA93E0928B818BA4
:10075000768365831482108289E0818381E08283BD
:1007600083830895CF93DF93EB0167E0CE01DEDF53
:1007700091E02F81281390E0892FDF91CF91089588
:10078000EF92FF920F931F93CF93DF938C017B0126
:10079000D42FFC01858196811DDFC0E0B701F801EF
:1007A0008581968145DF882329F0DC1729F0CF5F0A
:1007B000DC17A0F780E005C0B701C801D3DF8823AC
:1007C000B1F3DF91CF911F910F91FF90EF900895BA
:1007D000EF92FF920F931F93CF93DF93EC017B0176
:1007E0008A018D819E81EEDDB7018D819E81D2DEF1
:1007F00040E06EEB8D819E817FDE8D819E81AFDE3C
:10080000F80180838D819E81AADEF80181838D812C
:100810009E81A5DEF80182838D819E81A0DEF80194
:1008200083838D819E819BDEF80184838D819E81EF
:1008300096DEF80185838D819E8191DEF8018683A5
:100840008D819E818CDEF80187838D819E8187DE7C
:10085000F80180878D819E81DF91CF911F910F914B
:10086000FF90EF90AFCDCF93DF93EA01B1DF68E067
:10087000CE015CDF91E02885281390E0892FDF917D
:10088000CF9108950F931F93CF93DF93EC018B01CA
:100890008D819E8197DDB8018D819E817BDE40E058
:1008A00064EB8D819E8128DE8D819E81FDDD182F78
:1008B0008D819E8187DD81E0111180E0DF91CF91F4
:1008C0001F910F910895CF93DF9300D000D000D0F7
:1008D000CDB7DEB7FB012081203101F1AE014F5FC2
:1008E0005F4FC1DF882331F08D818F33A9F020F471
:1008F0008F31A1F080E007C08F3521F08F37D1F71D
:100900008CE001C08BE029960FB6F894DEBF0FBED5
:10091000CDBFDF91CF9108958AE0F5CF89E0F3CF85
:10092000EF92FF920F931F93CF93DF93CDB7DEB774
:1009300061970FB6F894DEBF0FBECDBF8C01FC01EE
:100940008581968147DEF8011482FF24F394BE016D
:10095000665F7F4FF801858196816ADE882399F171
:10096000BE01665F7F4FC801FDDE882381F3F80179
:100970008081811109C0BE01665F7F4FC80182DF9F
:10098000882311F0F801F082AE014F5F5F4FBE0186
:10099000665F7F4FC8011CDFF801E180BE01665F22
:1009A0007F4FC80190DF8E1540F4F8018181F80176
:1009B000818384818F5F8483CACFBE01665F7F4F4E
:1009C000C80181DFF4CF61960FB6F894DEBF0FBE89
:1009D000CDBFDF91CF911F910F91FF90EF900895C0
:1009E000CF93DF9300D000D000D0CDB7DEB7AE01FB
:1009F0004F5F5F4FEDDE81E09981911101C080E092
:100A000029960FB6F894DEBF0FBECDBFDF91CF9110
:100A10000895CF92DF92EF92FF920F931F93CF939F
:100A2000DF93EC018B01452BC9F08B818823B1F05A
:100A30008881811113C06FD16B017C0170E060E08F
:100A4000CE01CEDF81110AC066D16C197D098E09F5
:100A50009F096E3E72408105910580F3F801808107
:100A60008A3089F08B30A1F08930B9F46EE570E0FE
:100A700080E090E0DF91CF911F910F91FF90EF9078
:100A8000DF90CF9079C16CEB70E080E090E0F2CF26
:100A900067E771E080E090E0EDCF6EEE72E080E01D
:100AA00090E0E8CFCF93DF93EC018D819E818ADCCB
:100AB0008D819E818CDD488164E48D819E811CDD69
:100AC0008A81882349F0BE016F5F7F4F50E040E08C
:100AD000CE01DF91CF919DCFDF91CF910895CF923D
:100AE000DF92EF92FF921F93CF93DF93FA01C081C1
:100AF000D181DB018C91823281F1883271F18031B8
:100B000091F517818681212F281B330BB901072E00
:100B1000000C880B990BA3D66B017C01612F70E050
:100B200090E080E09AD69B01AC01C701B60101D6E6
:100B30006B017C01BE0175956795072E000C880B33
:100B4000990B8DD620E030E040E85EE389D59B012B
:100B5000AC01C701B60185D515C084818F3339F149
:100B600018F48F3199F10EC08F35A1F08F37D9F776
:100B7000BE01DD0F880B990B72D620E030E040E813
:100B80005DE321D7DF91CF911F91FF90EF90DF9030
:100B9000CF900895BE0175956795072E000C880BC0
:100BA000990B5DD620E030E040E05EE3EACFBE0185
:100BB0007595679575956795072E000C880B990BB1
:100BC0004ED620E030E040E85EE3DBCFBE0193E0AC
:100BD000759567959A95E1F7072E000C880B990B90
:100BE0003ED620E030E040E05FE3CBCFEF92FF92D3
:100BF0000F931F93CF93DF9300D000D000D0CDB7D9
:100C0000DEB78C017B01AE014F5F5F4F2CDE882386
:100C100099F0AE014F5F5F4FB701C80160DF2996C1
:100C20000FB6F894DEBF0FBECDBFDF91CF911F91FD
:100C30000F91FF90EF90089560E070E08EEF92ECDE
:100C4000EECF0F931F93CF93DF9300D000D01F926E
:100C50001F92CDB7DEB78C01462FBE016F5F7F4F6D
:100C60008FDDBE016F5F7F4FC801C0DF28960FB6D2
:100C7000F894DEBF0FBECDBFDF91CF911F910F91D2
:100C800008951F920F920FB60F9211242F933F9346
:100C90008F939F93AF93BF938091AE029091AF02D9
:100CA000A091B002B091B1023091AD0223E0230FC8
:100CB0002D3758F50196A11DB11D2093AD028093EB
:100CC000AE029093AF02A093B002B093B1028091B4
:100CD000B2029091B302A091B402B091B502019614
:100CE000A11DB11D8093B2029093B302A093B402F0
:100CF000B093B502BF91AF919F918F913F912F918A
:100D00000F900FBE0F901F90189526E8230F0296A4
:100D1000A11DB11DD2CF2FB7F8946091AE02709192
:100D2000AF028091B0029091B1022FBF08953FB7FA
:100D3000F8948091B2029091B302A091B402B09164
:100D4000B50226B5A89B05C02F3F19F00196A11D3D
:100D5000B11D3FBFBA2FA92F982F8827BC01CD0105
:100D6000620F711D811D911D42E0660F771F881F64
:100D7000991F4A95D1F708958F929F92AF92BF9293
:100D8000CF92DF92EF92FF926B017C01D0DF4B019B
:100D90005C01C114D104E104F104D9F060D4C7DFCF
:100DA000681979098A099B09683E73408105910594
:100DB00080F321E0C21AD108E108F10888EE880E1C
:100DC00083E0981EA11CB11CC114D104E104F104FC
:100DD00031F7FF90EF90DF90CF90BF90AF909F9052
:100DE0008F9008958230910538F0880F991F880FF1
:100DF000991F05970197F1F70895789484B582605B
:100E000084BD84B5816084BD85B5826085BD85B5AE
:100E1000816085BDEEE6F0E0808181608083E1E85D
:100E2000F0E0108280818260808380818160808395
:100E3000E0E8F0E0808181608083E1EBF0E0808198
:100E400084608083E0EBF0E0808181608083E1E971
:100E5000F0E0808182608083808181608083E0E92E
:100E6000F0E0808181608083E1EAF0E0808182604F
:100E70008083808181608083E0EAF0E0808181600E
:100E80008083E1E2F1E08081826080838081816003
:100E90008083E0E2F1E0808181608083EAE7F0E036
:100EA0008081846080838081826080838081816092
:100EB00080838081806880831092C1000895CF93E1
:100EC000DF9390E0FC01EC51FE4F2491865C9D4F36
:100ED000FC0184918823C9F090E0880F991FFC01E0
:100EE000EC53FD4FA591B491FC01E655FD4FC59122
:100EF000D49161110DC09FB7F8948C9120958223F5
:100F00008C938881282328839FBFDF91CF910895F8
:100F1000623051F49FB7F8943C91822F80958323DF
:100F20008C93E8812E2BEFCF8FB7F894EC912E2B7A
:100F30002C938FBFEACFFC01918D228D892F90E0F9
:100F4000805C9F4F821B91098F7399270895FC0144
:100F5000918D828D981731F0828DE80FF11D858D6E
:100F600090E008958FEF9FEF0895FC01918D828DA1
:100F7000981761F0A28DAE0FBF2FB11D5D968C91B9
:100F8000928D9F5F9F73928F90E008958FEF9FEFF8
:100F90000895FC01538D448D252F30E0842F90E07F
:100FA000821B930B541710F0CF9608950197089564
:100FB00081E599E0892B41F080E090E0892B21F0D8
:100FC00070D181110E94000080E090E0892B49F0EF
:100FD00080E090E0892B29F00E94000081110E949E
:100FE000000080E090E0892B49F080E090E0892BC0
:100FF00029F00E94000081110E94000080E090E032
:10100000892B49F080E090E0892B29F00E940000B4
:1010100081110C9400000895FC01A48DA80FB92F34
:10102000B11DA35ABF4F2C91848D90E001968F7310
:101030009927848FA689B7892C93A089B1898C912F
:1010400080648C93938D848D981306C00288F389F5
:10105000E02D80818F7D80830895CF93DF93EC0115
:10106000888D8823B1F0AA89BB89E889F9898C9198
:1010700085FD03C0808186FD0CC00FB607FCF7CF4D
:101080008C9185FFF2CF808185FFEDCFCE01C4DF4B
:10109000EACFDF91CF910895EF92FF920F931F93C4
:1010A000CF93DF93EC0181E0888F9B8D8C8D98131B
:1010B00016C0E889F989808185FF11C0EE89FF8912
:1010C0006083E889F98980818064808381E090E091
:1010D000DF91CF911F910F91FF90EF900895F62E21
:1010E0000B8D10E00F5F1F4F0F731127E02E8C8DBB
:1010F0008E110BC00FB607FCFACFE889F989808101
:1011000085FFF5CFCE0188DFF2CFEB8DEC0FFD2F01
:10111000F11DE35AFF4FF0820B8FEA89FB89808132
:101120008062D3CFCF92DF92EF92FF921F93CF9343
:10113000DF93EC016A017B01122FE889F98982E0D3
:101140008083C11481EED806E104F10499F060E0D7
:1011500079E08DE390E0A70196019CD421503109FC
:10116000410951095695479537952795211580E1F5
:10117000380790F0E889F989108260E874E88EE118
:1011800090E0A701960186D4215031094109510907
:101190005695479537952795EC85FD853083EE85E7
:1011A000FF852083188EEC89FD891083EA89FB89ED
:1011B000808180618083EA89FB8980818860808367
:1011C000EA89FB89808180688083EA89FB89808144
:1011D0008F7D8083DF91CF911F91FF90EF90DF9003
:1011E000CF9008951F920F920FB60F9211240BB655
:1011F0000F922F938F939F93EF93FF93E091C602EB
:10120000F091C7028081E091CC02F091CD0282FD85
:101210001DC090818091CF028F5F8F732091D0028B
:10122000821741F0E091CF02F0E0EA54FD4F958F34
:101230008093CF02FF91EF919F918F912F910F900B
:101240000BBE0F900FBE0F901F9018958081F2CFAC
:101250001F920F920FB60F9211240BB60F922F937D
:101260003F934F935F936F937F938F939F93AF932E
:10127000BF93EF93FF9386EB92E0CEDEFF91EF9169
:10128000BF91AF919F918F917F916F915F914F919E
:101290003F912F910F900BBE0F900FBE0F901F909C
:1012A000189586EB92E047DE21E0892B09F420E0D7
:1012B000822F0895E6EBF2E01382128288EE93E02B
:1012C000A0E0B0E084839583A683B7838FE692E0A5
:1012D0009183808385EC90E09587848784EC90E00F
:1012E0009787868780EC90E0918B808B81EC90E0F3
:1012F000938B828B82EC90E0958B848B86EC90E0D4
:10130000978B868B118E128E138E148E08950895EE
:1013100074DDFDDF17D8C8EDD7E025D82097E9F3B5
:1013200047DEFBCFAF92BF92CF92DF92EF92FF9258
:101330000F931F93CF93DF936C017B018B01040FFD
:10134000151FEB015E01AE18BF08C017D10759F099
:101350006991D601ED91FC910190F081E02DC601DB
:101360001995892B79F7C501DF91CF911F910F91C5
:10137000FF90EF90DF90CF90BF90AF900895FB016A
:1013800001900020E9F73197AF01461B570BDC01B4
:10139000ED91FC910280F381E02D199461157105A6
:1013A00009F0EDCF90E080E00895DC01ED91FC9133
:1013B0000190F081E02D19946DE772E0E0CF0F937A
:1013C0001F93CF93DF938C01D0E0C0E061157105CE
:1013D00011F0D5DFEC01C801EFDF8C0F9D1FDF910D
:1013E000CF911F910F9108958F929F92AF92BF92CC
:1013F000EF92FF920F931F93CF93DF93CDB7DEB79A
:10140000A1970FB6F894DEBF0FBECDBF7C01FA01E5
:10141000CB0119A2223008F42AE08E010F5D1F4F84
:10142000822E912CB12CA12CBF01A501940132D3A5
:10143000F901CA016A3004F5605DD8016E938D012F
:10144000232B242B252B81F790E080E0109719F0B7
:10145000BD01C70194DFA1960FB6F894DEBF0FBEA1
:10146000CDBFDF91CF911F910F91FF90EF90BF9073
:10147000AF909F908F900895695CDFCF2115310563
:1014800041F4DC01ED91FC910190F081E02D642F9D
:101490001994AACF9A01AB0170E060E0EFCF2F92D0
:1014A0003F924F925F926F927F928F929F92AF92F4
:1014B000BF92CF92DF92EF92FF921F93CF93DF9371
:1014C000EC016A017B01722EAB019601CB01B601E2
:1014D000DDD260E872E0811123C046015701E89433
:1014E000B7F82FEF3FEF4FE75FE7C501B401CED26A
:1014F00081110BC02FEF3FEF4FE75FE7C501B4014C
:1015000014D164E872E018165CF02FEF3FEF4FE75C
:101510005FE4C701B60153D21816ACF468E872E074
:10152000CE01DF91CF911F91FF90EF90DF90CF9090
:10153000BF90AF909F908F907F906F905F904F90F3
:101540003F902F901CCF2FEF3FEF4FE75FECC7018D
:10155000B601EBD087FDE2CF20E030E0A901C70162
:10156000B601E3D0312C212C87FF08C06DE2CE01FB
:101570001CDF1C01F7FAF094F7F8F09410E060E03B
:1015800070E080E09FE3711639F020E030E040E247
:1015900051E4CFD01F5FF7CFA701960162D02B0196
:1015A0003C012FD14B015C012AE0BC01A401CE011A
:1015B0001BDF7C01E20CF31C112371F1C501B401A6
:1015C0004CD19B01AC01C301B2014AD04B015C017B
:1015D0006EE2CE01EADEE80EF91E1150E8F020E0DE
:1015E00030E040E251E4C501B401EDD12B013C01F2
:1015F00008D14B014AE050E0CE014CDFE80EF91E65
:10160000B40190E080E029D19B01AC01C301B2019B
:1016100027D04B015C01E1CFC701DF91CF911F9132
:10162000FF90EF90DF90CF90BF90AF909F908F9002
:101630007F906F905F904F903F902F9008950F9301
:101640001F93CF93DF93EC012ADF8C01CE01B4DE30
:10165000800F911FDF91CF911F910F9108950895F1
:101660005058BB27AA270ED070C161D130F066D187
:1016700020F031F49F3F11F41EF456C10EF4E095B2
:10168000E7FB4CC1E92F72D180F3BA1762077307E9
:101690008407950718F071F49EF58AC10EF4E09561
:1016A0000B2EBA2FA02D0B01B90190010C01CA011C
:1016B000A0011124FF27591B99F0593F50F4503EC7
:1016C00068F11A16F040A22F232F342F4427585FB9
:1016D000F3CF469537952795A795F0405395C9F7D1
:1016E0007EF41F16BA0B620B730B840BBAF0915089
:1016F000A1F0FF0FBB1F661F771F881FC2F70EC028
:10170000BA0F621F731F841F48F4879577956795FA
:10171000B795F7959E3F08F0B3CF9395880F08F0E3
:101720009927EE0F979587950895D4D008F481E016
:1017300008950CD00AC102D140F0F9D030F021F464
:101740005F3F19F0EBC0511134C1EEC00FD198F3D7
:101750009923C9F35523B1F3951B550BBB27AA2732
:1017600062177307840738F09F5F5F4F220F331FA4
:10177000441FAA1FA9F333D00E2E3AF0E0E830D070
:1017800091505040E695001CCAF729D0FE2F27D073
:10179000660F771F881FBB1F261737074807AB0741
:1017A000B0E809F0BB0B802DBF01FF2793585F4FB6
:1017B0002AF09E3F510568F0B1C0FBC05F3FECF3DB
:1017C000983EDCF3869577956795B795F7959F5F7B
:1017D000C9F7880F911D9695879597F90895E1E0CF
:1017E000660F771F881FBB1F621773078407BA072E
:1017F00020F0621B730B840BBA0BEE1F88F7E09589
:101800000895BCD088F09F5790F0B92F9927B75111
:10181000A0F0D1F0660F771F881F991F1AF0BA95B4
:10182000C9F712C0B13081F0C3D0B1E00895C0C093
:10183000672F782F8827B85F39F0B93FCCF38695AA
:1018400077956795B395D9F73EF490958095709507
:1018500061957F4F8F4F9F4F0895E89409C097FB84
:101860003EF490958095709561957F4F8F4F9F4F77
:101870009923A9F0F92F96E9BB279395F6958795BB
:1018800077956795B795F111F8CFFAF4BB0F11F47E
:1018900060FF1BC06F5F7F4F8F4F9F4F16C0882325
:1018A00011F096E911C0772321F09EE8872F762F5B
:1018B00005C0662371F096E8862F70E060E02AF09C
:1018C0009A95660F771F881FDAF7880F9695879588
:1018D00097F90895990F0008550FAA0BE0E8FEEF5D
:1018E00016161706E807F907C0F012161306E407E4
:1018F000F50798F0621B730B840B950B39F40A26DD
:1019000061F0232B242B252B21F408950A2609F4BA
:10191000A140A6958FEF811D811D089597F99F67BE
:1019200080E870E060E008959FEF80EC0895002467
:101930000A941616170618060906089500240A9434
:1019400012161306140605060895092E0394000CBA
:1019500011F4882352F0BB0F40F4BF2B11F460FF49
:1019600004C06F5F7F4F8F4F9F4F089557FD905872
:10197000440F551F59F05F3F71F04795880F97FB53
:10198000991F61F09F3F79F087950895121613060D
:101990001406551FF2CF4695F1DF08C0161617063C
:1019A0001806991FF1CF8695710561050894089571
:1019B000E894BB2766277727CB0197F908958ADF3C
:1019C00008F48FEF08950BD0C0CFB1DF28F0B6DF59
:1019D00018F0952309F0A2CFA7CF1124EACFC6DFD4
:1019E000A0F3959FD1F3950F50E0551F629FF00132
:1019F000729FBB27F00DB11D639FAA27F00DB11D8B
:101A0000AA1F649F6627B00DA11D661F829F222713
:101A1000B00DA11D621F739FB00DA11D621F839F9A
:101A2000A00D611D221F749F3327A00D611D231F70
:101A3000849F600D211D822F762F6A2F11249F57BE
:101A400050408AF0E1F088234AF0EE0FFF1FBB1FE1
:101A5000661F771F881F91505040A9F79E3F510580
:101A600070F05CCFA6CF5F3FECF3983EDCF3869539
:101A700077956795B795F795E7959F5FC1F7FE2B2B
:101A8000880F911D9695879597F9089523DF880B08
:101A9000990B0895A1E21A2EAA1BBB1BFD010DC0D4
:101AA000AA1FBB1FEE1FFF1FA217B307E407F5070E
:101AB00020F0A21BB30BE40BF50B661F771F881FEA
:101AC000991F1A9469F760957095809590959B0180
:101AD000AC01BD01CF010895EE0FFF1F881F8BBF22
:0C1AE0000790F691E02D1994F894FFCFC8
:101AEC0044616C6C61732054656D706572617475C2
:101AFC00726520494320436F6E74726F6C204C6981
:101B0C0062726172792044656D6F00526571756502
:101B1C007374696E672074656D706572617475722B
:101B2C0065732E2E2E00444F4E450054656D706526
:101B3C0072617475726520666F72207468652064BA
:101B4C0065766963652069733A2000000000004CDB
:101B5C00089209C9072D089B07B507A7070D0A00AE
:0C1B6C006E616E00696E66006F766600A8
:00000001FF
